{"abi":[{"type":"constructor","inputs":[{"name":"_usdc","type":"address","internalType":"address"}],"stateMutability":"nonpayable"},{"type":"function","name":"deactivate","inputs":[],"outputs":[],"stateMutability":"nonpayable"},{"type":"function","name":"deactivationCooldown","inputs":[],"outputs":[{"name":"","type":"uint256","internalType":"uint256"}],"stateMutability":"view"},{"type":"function","name":"getIdentity","inputs":[{"name":"identityHash","type":"bytes32","internalType":"bytes32"}],"outputs":[{"name":"owner","type":"address","internalType":"address"},{"name":"signingKey","type":"address","internalType":"address"},{"name":"name","type":"string","internalType":"string"},{"name":"metadataUri","type":"string","internalType":"string"},{"name":"stakedAmount","type":"uint256","internalType":"uint256"},{"name":"registeredAt","type":"uint256","internalType":"uint256"},{"name":"deactivatedAt","type":"uint256","internalType":"uint256"},{"name":"totalVouchesReceived","type":"uint256","internalType":"uint256"}],"stateMutability":"view"},{"type":"function","name":"getLinkedPlatforms","inputs":[{"name":"identityHash","type":"bytes32","internalType":"bytes32"}],"outputs":[{"name":"","type":"string[]","internalType":"string[]"}],"stateMutability":"view"},{"type":"function","name":"getVouchCount","inputs":[{"name":"identityHash","type":"bytes32","internalType":"bytes32"}],"outputs":[{"name":"","type":"uint256","internalType":"uint256"}],"stateMutability":"view"},{"type":"function","name":"identities","inputs":[{"name":"","type":"bytes32","internalType":"bytes32"}],"outputs":[{"name":"owner","type":"address","internalType":"address"},{"name":"signingKey","type":"address","internalType":"address"},{"name":"name","type":"string","internalType":"string"},{"name":"metadataUri","type":"string","internalType":"string"},{"name":"stakedAmount","type":"uint256","internalType":"uint256"},{"name":"registeredAt","type":"uint256","internalType":"uint256"},{"name":"deactivatedAt","type":"uint256","internalType":"uint256"},{"name":"totalVouchesReceived","type":"uint256","internalType":"uint256"}],"stateMutability":"view"},{"type":"function","name":"isActive","inputs":[{"name":"identityHash","type":"bytes32","internalType":"bytes32"}],"outputs":[{"name":"","type":"bool","internalType":"bool"}],"stateMutability":"view"},{"type":"function","name":"linkPlatform","inputs":[{"name":"platform","type":"string","internalType":"string"}],"outputs":[],"stateMutability":"nonpayable"},{"type":"function","name":"linkedPlatforms","inputs":[{"name":"","type":"bytes32","internalType":"bytes32"},{"name":"","type":"uint256","internalType":"uint256"}],"outputs":[{"name":"","type":"string","internalType":"string"}],"stateMutability":"view"},{"type":"function","name":"minStake","inputs":[],"outputs":[{"name":"","type":"uint256","internalType":"uint256"}],"stateMutability":"view"},{"type":"function","name":"owner","inputs":[],"outputs":[{"name":"","type":"address","internalType":"address"}],"stateMutability":"view"},{"type":"function","name":"ownerToIdentity","inputs":[{"name":"","type":"address","internalType":"address"}],"outputs":[{"name":"","type":"bytes32","internalType":"bytes32"}],"stateMutability":"view"},{"type":"function","name":"reactivate","inputs":[],"outputs":[],"stateMutability":"nonpayable"},{"type":"function","name":"register","inputs":[{"name":"name","type":"string","internalType":"string"},{"name":"metadataUri","type":"string","internalType":"string"},{"name":"signingKey","type":"address","internalType":"address"},{"name":"stakeAmount","type":"uint256","internalType":"uint256"}],"outputs":[{"name":"identityHash","type":"bytes32","internalType":"bytes32"}],"stateMutability":"nonpayable"},{"type":"function","name":"renounceOwnership","inputs":[],"outputs":[],"stateMutability":"nonpayable"},{"type":"function","name":"setDeactivationCooldown","inputs":[{"name":"_cooldown","type":"uint256","internalType":"uint256"}],"outputs":[],"stateMutability":"nonpayable"},{"type":"function","name":"setMinStake","inputs":[{"name":"_minStake","type":"uint256","internalType":"uint256"}],"outputs":[],"stateMutability":"nonpayable"},{"type":"function","name":"transferOwnership","inputs":[{"name":"newOwner","type":"address","internalType":"address"}],"outputs":[],"stateMutability":"nonpayable"},{"type":"function","name":"updateSigningKey","inputs":[{"name":"newSigningKey","type":"address","internalType":"address"}],"outputs":[],"stateMutability":"nonpayable"},{"type":"function","name":"usdc","inputs":[],"outputs":[{"name":"","type":"address","internalType":"contract IERC20"}],"stateMutability":"view"},{"type":"function","name":"verifySignature","inputs":[{"name":"identityHash","type":"bytes32","internalType":"bytes32"},{"name":"messageHash","type":"bytes32","internalType":"bytes32"},{"name":"signature","type":"bytes","internalType":"bytes"}],"outputs":[{"name":"","type":"bool","internalType":"bool"}],"stateMutability":"view"},{"type":"function","name":"vouch","inputs":[{"name":"identityHash","type":"bytes32","internalType":"bytes32"},{"name":"amount","type":"uint256","internalType":"uint256"}],"outputs":[],"stateMutability":"nonpayable"},{"type":"function","name":"vouchIndex","inputs":[{"name":"","type":"address","internalType":"address"},{"name":"","type":"bytes32","internalType":"bytes32"}],"outputs":[{"name":"","type":"uint256","internalType":"uint256"}],"stateMutability":"view"},{"type":"function","name":"vouches","inputs":[{"name":"","type":"bytes32","internalType":"bytes32"},{"name":"","type":"uint256","internalType":"uint256"}],"outputs":[{"name":"voucher","type":"address","internalType":"address"},{"name":"amount","type":"uint256","internalType":"uint256"},{"name":"timestamp","type":"uint256","internalType":"uint256"}],"stateMutability":"view"},{"type":"function","name":"withdrawStake","inputs":[],"outputs":[],"stateMutability":"nonpayable"},{"type":"function","name":"withdrawVouch","inputs":[{"name":"identityHash","type":"bytes32","internalType":"bytes32"}],"outputs":[],"stateMutability":"nonpayable"},{"type":"event","name":"IdentityDeactivated","inputs":[{"name":"identityHash","type":"bytes32","indexed":true,"internalType":"bytes32"}],"anonymous":false},{"type":"event","name":"IdentityReactivated","inputs":[{"name":"identityHash","type":"bytes32","indexed":true,"internalType":"bytes32"}],"anonymous":false},{"type":"event","name":"IdentityRegistered","inputs":[{"name":"identityHash","type":"bytes32","indexed":true,"internalType":"bytes32"},{"name":"owner","type":"address","indexed":true,"internalType":"address"},{"name":"name","type":"string","indexed":false,"internalType":"string"},{"name":"stake","type":"uint256","indexed":false,"internalType":"uint256"}],"anonymous":false},{"type":"event","name":"OwnershipTransferred","inputs":[{"name":"previousOwner","type":"address","indexed":true,"internalType":"address"},{"name":"newOwner","type":"address","indexed":true,"internalType":"address"}],"anonymous":false},{"type":"event","name":"PlatformLinked","inputs":[{"name":"identityHash","type":"bytes32","indexed":true,"internalType":"bytes32"},{"name":"platform","type":"string","indexed":false,"internalType":"string"}],"anonymous":false},{"type":"event","name":"SigningKeyUpdated","inputs":[{"name":"identityHash","type":"bytes32","indexed":true,"internalType":"bytes32"},{"name":"newKey","type":"address","indexed":false,"internalType":"address"}],"anonymous":false},{"type":"event","name":"StakeWithdrawn","inputs":[{"name":"identityHash","type":"bytes32","indexed":true,"internalType":"bytes32"},{"name":"amount","type":"uint256","indexed":false,"internalType":"uint256"}],"anonymous":false},{"type":"event","name":"VouchAdded","inputs":[{"name":"identityHash","type":"bytes32","indexed":true,"internalType":"bytes32"},{"name":"voucher","type":"address","indexed":true,"internalType":"address"},{"name":"amount","type":"uint256","indexed":false,"internalType":"uint256"}],"anonymous":false},{"type":"event","name":"VouchWithdrawn","inputs":[{"name":"identityHash","type":"bytes32","indexed":true,"internalType":"bytes32"},{"name":"voucher","type":"address","indexed":true,"internalType":"address"},{"name":"amount","type":"uint256","indexed":false,"internalType":"uint256"}],"anonymous":false},{"type":"error","name":"ECDSAInvalidSignature","inputs":[]},{"type":"error","name":"ECDSAInvalidSignatureLength","inputs":[{"name":"length","type":"uint256","internalType":"uint256"}]},{"type":"error","name":"ECDSAInvalidSignatureS","inputs":[{"name":"s","type":"bytes32","internalType":"bytes32"}]},{"type":"error","name":"OwnableInvalidOwner","inputs":[{"name":"owner","type":"address","internalType":"address"}]},{"type":"error","name":"OwnableUnauthorizedAccount","inputs":[{"name":"account","type":"address","internalType":"address"}]}],"bytecode":{"object":"0x60a0604052620f424060015562093a8060025534801561001d575f5ffd5b50604051613dd8380380613dd8833981810160405281019061003f9190610219565b335f73ffffffffffffffffffffffffffffffffffffffff168173ffffffffffffffffffffffffffffffffffffffff16036100b0575f6040517f1e4fbdf70000000000000000000000000000000000000000000000000000000081526004016100a79190610253565b60405180910390fd5b6100bf816100fa60201b60201c565b508073ffffffffffffffffffffffffffffffffffffffff1660808173ffffffffffffffffffffffffffffffffffffffff16815250505061026c565b5f5f5f9054906101000a900473ffffffffffffffffffffffffffffffffffffffff169050815f5f6101000a81548173ffffffffffffffffffffffffffffffffffffffff021916908373ffffffffffffffffffffffffffffffffffffffff1602179055508173ffffffffffffffffffffffffffffffffffffffff168173ffffffffffffffffffffffffffffffffffffffff167f8be0079c531659141344cd1fd0a4f28419497f9722a3daafe3b4186f6b6457e060405160405180910390a35050565b5f5ffd5b5f73ffffffffffffffffffffffffffffffffffffffff82169050919050565b5f6101e8826101bf565b9050919050565b6101f8816101de565b8114610202575f5ffd5b50565b5f81519050610213816101ef565b92915050565b5f6020828403121561022e5761022d6101bb565b5b5f61023b84828501610205565b91505092915050565b61024d816101de565b82525050565b5f6020820190506102665f830184610244565b92915050565b608051613b386102a05f395f81816107a301528181610c1f015281816116b1015281816119640152611db20152613b385ff3fe608060405234801561000f575f5ffd5b506004361061018c575f3560e01c806381638e9b116100dc578063a786721211610095578063c1a92f031161006f578063c1a92f031461048e578063d18611d6146104be578063f2fde38b146104c8578063fbb4f08a146104e45761018c565b8063a786721214610431578063b1b73a0c14610468578063bed9d861146104845761018c565b806381638e9b146103425780638c80fd90146103795780638da5cb5b146103955780638daa3980146103b3578063903a6ac0146103e55780639bc23941146104155761018c565b80633ddc905c1161014957806351b42b001161012357806351b42b00146102e25780635c36901c146102ec578063680603af1461031c578063715018a6146103385761018c565b80633ddc905c146102645780633e413bee14610294578063434bff62146102b25761018c565b806304478293146101905780630af7c965146101ac5780630e4a8c3c146101dc57806311f38a98146101f85780631ddcf64e14610216578063375b3c0a14610246575b5f5ffd5b6101aa60048036038101906101a591906125e4565b610514565b005b6101c660048036038101906101c19190612675565b610695565b6040516101d39190612723565b60405180910390f35b6101f660048036038101906101f19190612743565b610746565b005b610200610758565b60405161020d919061277d565b60405180910390f35b610230600480360381019061022b9190612796565b61075e565b60405161023d919061277d565b60405180910390f35b61024e61077e565b60405161025b919061277d565b60405180910390f35b61027e600480360381019061027991906127d4565b610784565b60405161028b919061277d565b60405180910390f35b61029c6107a1565b6040516102a9919061285a565b60405180910390f35b6102cc60048036038101906102c791906127d4565b6107c5565b6040516102d99190612976565b60405180910390f35b6102ea6108aa565b005b610306600480360381019061030191906127d4565b6109ce565b60405161031391906129b0565b60405180910390f35b61033660048036038101906103319190612675565b610a57565b005b610340610e9d565b005b61035c600480360381019061035791906127d4565b610eb0565b6040516103709897969594939291906129d8565b60405180910390f35b610393600480360381019061038e9190612743565b61103e565b005b61039d611050565b6040516103aa9190612a62565b60405180910390f35b6103cd60048036038101906103c89190612675565b611077565b6040516103dc93929190612a7b565b60405180910390f35b6103ff60048036038101906103fa9190612b11565b6110d6565b60405161040c91906129b0565b60405180910390f35b61042f600480360381019061042a9190612bd7565b61123f565b005b61044b600480360381019061044691906127d4565b6113a3565b60405161045f9897969594939291906129d8565b60405180910390f35b610482600480360381019061047d91906127d4565b611553565b005b61048c6117de565b005b6104a860048036038101906104a391906125e4565b611a79565b6040516104b59190612c31565b60405180910390f35b6104c6611a8e565b005b6104e260048036038101906104dd91906125e4565b611bb2565b005b6104fe60048036038101906104f99190612c4a565b611c36565b60405161050b9190612c31565b60405180910390f35b5f60045f3373ffffffffffffffffffffffffffffffffffffffff1673ffffffffffffffffffffffffffffffffffffffff1681526020019081526020015f205490505f5f1b8103610599576040517f08c379a000000000000000000000000000000000000000000000000000000000815260040161059090612d37565b60405180910390fd5b5f73ffffffffffffffffffffffffffffffffffffffff168273ffffffffffffffffffffffffffffffffffffffff1603610607576040517f08c379a00000000000000000000000000000000000000000000000000000000081526004016105fe90612d9f565b60405180910390fd5b8160035f8381526020019081526020015f206001015f6101000a81548173ffffffffffffffffffffffffffffffffffffffff021916908373ffffffffffffffffffffffffffffffffffffffff160217905550807f251663d787fd03916f5a1012826e0ebe2ae5bc32c3f55b33a329faf7c447042b836040516106899190612a62565b60405180910390a25050565b6005602052815f5260405f2081815481106106ae575f80fd5b905f5260205f20015f915091505080546106c790612dea565b80601f01602080910402602001604051908101604052809291908181526020018280546106f390612dea565b801561073e5780601f106107155761010080835404028352916020019161073e565b820191905f5260205f20905b81548152906001019060200180831161072157829003601f168201915b505050505081565b61074e612138565b8060028190555050565b60025481565b6007602052815f5260405f20602052805f5260405f205f91509150505481565b60015481565b5f60065f8381526020019081526020015f20805490509050919050565b7f000000000000000000000000000000000000000000000000000000000000000081565b606060055f8381526020019081526020015f20805480602002602001604051908101604052809291908181526020015f905b8282101561089f578382905f5260205f2001805461081490612dea565b80601f016020809104026020016040519081016040528092919081815260200182805461084090612dea565b801561088b5780601f106108625761010080835404028352916020019161088b565b820191905f5260205f20905b81548152906001019060200180831161086e57829003601f168201915b5050505050815260200190600101906107f7565b505050509050919050565b5f60045f3373ffffffffffffffffffffffffffffffffffffffff1673ffffffffffffffffffffffffffffffffffffffff1681526020019081526020015f205490505f5f1b810361092f576040517f08c379a000000000000000000000000000000000000000000000000000000000815260040161092690612d37565b60405180910390fd5b5f60035f8381526020019081526020015f206006015414610985576040517f08c379a000000000000000000000000000000000000000000000000000000000815260040161097c90612e64565b60405180910390fd5b4260035f8381526020019081526020015f2060060181905550807fd5956587892e7ea7021adfb558603c468bce855eeec5f974c5c8d5edb2b73dba60405160405180910390a250565b5f5f73ffffffffffffffffffffffffffffffffffffffff1660035f8481526020019081526020015f205f015f9054906101000a900473ffffffffffffffffffffffffffffffffffffffff1673ffffffffffffffffffffffffffffffffffffffff1614158015610a5057505f60035f8481526020019081526020015f2060060154145b9050919050565b5f73ffffffffffffffffffffffffffffffffffffffff1660035f8481526020019081526020015f205f015f9054906101000a900473ffffffffffffffffffffffffffffffffffffffff1673ffffffffffffffffffffffffffffffffffffffff1603610af7576040517f08c379a0000000000000000000000000000000000000000000000000000000008152600401610aee90612ecc565b60405180910390fd5b5f60035f8481526020019081526020015f206006015414610b4d576040517f08c379a0000000000000000000000000000000000000000000000000000000008152600401610b4490612f34565b60405180910390fd5b5f8111610b8f576040517f08c379a0000000000000000000000000000000000000000000000000000000008152600401610b8690612f9c565b60405180910390fd5b5f60075f3373ffffffffffffffffffffffffffffffffffffffff1673ffffffffffffffffffffffffffffffffffffffff1681526020019081526020015f205f8481526020019081526020015f205414610c1d576040517f08c379a0000000000000000000000000000000000000000000000000000000008152600401610c1490613004565b60405180910390fd5b7f000000000000000000000000000000000000000000000000000000000000000073ffffffffffffffffffffffffffffffffffffffff166323b872dd3330846040518463ffffffff1660e01b8152600401610c7a93929190613022565b6020604051808303815f875af1158015610c96573d5f5f3e3d5ffd5b505050506040513d601f19601f82011682018060405250810190610cba9190613081565b610cf9576040517f08c379a0000000000000000000000000000000000000000000000000000000008152600401610cf0906130f6565b60405180910390fd5b60065f8381526020019081526020015f2060405180606001604052803373ffffffffffffffffffffffffffffffffffffffff16815260200183815260200142815250908060018154018082558091505060019003905f5260205f2090600302015f909190919091505f820151815f015f6101000a81548173ffffffffffffffffffffffffffffffffffffffff021916908373ffffffffffffffffffffffffffffffffffffffff1602179055506020820151816001015560408201518160020155505060065f8381526020019081526020015f208054905060075f3373ffffffffffffffffffffffffffffffffffffffff1673ffffffffffffffffffffffffffffffffffffffff1681526020019081526020015f205f8481526020019081526020015f20819055508060035f8481526020019081526020015f206007015f828254610e439190613141565b925050819055503373ffffffffffffffffffffffffffffffffffffffff16827f6f7935e7494ad5dcd5772a6276af8d8a843faf22e4aa7c86541fc801c443a2d083604051610e91919061277d565b60405180910390a35050565b610ea5612138565b610eae5f6121bf565b565b6003602052805f5260405f205f91509050805f015f9054906101000a900473ffffffffffffffffffffffffffffffffffffffff1690806001015f9054906101000a900473ffffffffffffffffffffffffffffffffffffffff1690806002018054610f1990612dea565b80601f0160208091040260200160405190810160405280929190818152602001828054610f4590612dea565b8015610f905780601f10610f6757610100808354040283529160200191610f90565b820191905f5260205f20905b815481529060010190602001808311610f7357829003601f168201915b505050505090806003018054610fa590612dea565b80601f0160208091040260200160405190810160405280929190818152602001828054610fd190612dea565b801561101c5780601f10610ff35761010080835404028352916020019161101c565b820191905f5260205f20905b815481529060010190602001808311610fff57829003601f168201915b5050505050908060040154908060050154908060060154908060070154905088565b611046612138565b8060018190555050565b5f5f5f9054906101000a900473ffffffffffffffffffffffffffffffffffffffff16905090565b6006602052815f5260405f208181548110611090575f80fd5b905f5260205f2090600302015f9150915050805f015f9054906101000a900473ffffffffffffffffffffffffffffffffffffffff16908060010154908060020154905083565b5f5f60035f8781526020019081526020015f2090505f73ffffffffffffffffffffffffffffffffffffffff16815f015f9054906101000a900473ffffffffffffffffffffffffffffffffffffffff1673ffffffffffffffffffffffffffffffffffffffff160361117b576040517f08c379a000000000000000000000000000000000000000000000000000000000815260040161117290612ecc565b60405180910390fd5b5f61118586612280565b90505f6111de86868080601f0160208091040260200160405190810160405280939291908181526020018383808284375f81840152601f19601f82011690508083019250505050505050836122b390919063ffffffff16565b9050826001015f9054906101000a900473ffffffffffffffffffffffffffffffffffffffff1673ffffffffffffffffffffffffffffffffffffffff168173ffffffffffffffffffffffffffffffffffffffff16149350505050949350505050565b5f60045f3373ffffffffffffffffffffffffffffffffffffffff1673ffffffffffffffffffffffffffffffffffffffff1681526020019081526020015f205490505f5f1b81036112c4576040517f08c379a00000000000000000000000000000000000000000000000000000000081526004016112bb90612d37565b60405180910390fd5b5f60035f8381526020019081526020015f20600601541461131a576040517f08c379a000000000000000000000000000000000000000000000000000000000815260040161131190612f34565b60405180910390fd5b60055f8281526020019081526020015f20838390918060018154018082558091505060019003905f5260205f20015f909192909192909192909192509182611363929190613353565b50807f6ce6e03d80239c88d29393e40056bb9bcdfd9a95dfede95d82be28b0f4fbb728848460405161139692919061345a565b60405180910390a2505050565b5f5f6060805f5f5f5f5f60035f8b81526020019081526020015f209050805f015f9054906101000a900473ffffffffffffffffffffffffffffffffffffffff16816001015f9054906101000a900473ffffffffffffffffffffffffffffffffffffffff168260020183600301846004015485600501548660060154876007015485805461142f90612dea565b80601f016020809104026020016040519081016040528092919081815260200182805461145b90612dea565b80156114a65780601f1061147d576101008083540402835291602001916114a6565b820191905f5260205f20905b81548152906001019060200180831161148957829003601f168201915b505050505095508480546114b990612dea565b80601f01602080910402602001604051908101604052809291908181526020018280546114e590612dea565b80156115305780601f1061150757610100808354040283529160200191611530565b820191905f5260205f20905b81548152906001019060200180831161151357829003601f168201915b505050505094509850985098509850985098509850985050919395975091939597565b5f60075f3373ffffffffffffffffffffffffffffffffffffffff1673ffffffffffffffffffffffffffffffffffffffff1681526020019081526020015f205f8381526020019081526020015f205490505f81116115e5576040517f08c379a00000000000000000000000000000000000000000000000000000000081526004016115dc906134c6565b60405180910390fd5b5f60065f8481526020019081526020015f2060018361160491906134e4565b8154811061161557611614613517565b5b905f5260205f20906003020190505f816001015490505f82600101819055505f60075f3373ffffffffffffffffffffffffffffffffffffffff1673ffffffffffffffffffffffffffffffffffffffff1681526020019081526020015f205f8681526020019081526020015f20819055508060035f8681526020019081526020015f206007015f8282546116a891906134e4565b925050819055507f000000000000000000000000000000000000000000000000000000000000000073ffffffffffffffffffffffffffffffffffffffff1663a9059cbb33836040518363ffffffff1660e01b815260040161170a929190613544565b6020604051808303815f875af1158015611726573d5f5f3e3d5ffd5b505050506040513d601f19601f8201168201806040525081019061174a9190613081565b611789576040517f08c379a0000000000000000000000000000000000000000000000000000000008152600401611780906135b5565b60405180910390fd5b3373ffffffffffffffffffffffffffffffffffffffff16847f509551ecf718a5e08494e14a298e7191c368a05c16af2263d3c3e9638c81e7ba836040516117d0919061277d565b60405180910390a350505050565b5f60045f3373ffffffffffffffffffffffffffffffffffffffff1673ffffffffffffffffffffffffffffffffffffffff1681526020019081526020015f205490505f5f1b8103611863576040517f08c379a000000000000000000000000000000000000000000000000000000000815260040161185a90612d37565b60405180910390fd5b5f60035f8381526020019081526020015f2090505f8160060154116118bd576040517f08c379a00000000000000000000000000000000000000000000000000000000081526004016118b49061361d565b60405180910390fd5b60025481600601546118cf9190613141565b421015611911576040517f08c379a000000000000000000000000000000000000000000000000000000000815260040161190890613685565b60405180910390fd5b5f816004015490505f826004018190555060045f3373ffffffffffffffffffffffffffffffffffffffff1673ffffffffffffffffffffffffffffffffffffffff1681526020019081526020015f205f90557f000000000000000000000000000000000000000000000000000000000000000073ffffffffffffffffffffffffffffffffffffffff1663a9059cbb33836040518363ffffffff1660e01b81526004016119bd929190613544565b6020604051808303815f875af11580156119d9573d5f5f3e3d5ffd5b505050506040513d601f19601f820116820180604052508101906119fd9190613081565b611a3c576040517f08c379a0000000000000000000000000000000000000000000000000000000008152600401611a33906135b5565b60405180910390fd5b827f80f371db73b1f2c178035e1597e63905a3394128bc8a687e663b27e8a6dc323482604051611a6c919061277d565b60405180910390a2505050565b6004602052805f5260405f205f915090505481565b5f60045f3373ffffffffffffffffffffffffffffffffffffffff1673ffffffffffffffffffffffffffffffffffffffff1681526020019081526020015f205490505f5f1b8103611b13576040517f08c379a0000000000000000000000000000000000000000000000000000000008152600401611b0a90612d37565b60405180910390fd5b5f60035f8381526020019081526020015f206006015411611b69576040517f08c379a0000000000000000000000000000000000000000000000000000000008152600401611b60906136ed565b60405180910390fd5b5f60035f8381526020019081526020015f2060060181905550807fbbb5b1d037fa320839c0121ab52e3013810c52f1b4c75e415c2595762d35ab9060405160405180910390a250565b611bba612138565b5f73ffffffffffffffffffffffffffffffffffffffff168173ffffffffffffffffffffffffffffffffffffffff1603611c2a575f6040517f1e4fbdf7000000000000000000000000000000000000000000000000000000008152600401611c219190612a62565b60405180910390fd5b611c33816121bf565b50565b5f5f5f1b60045f3373ffffffffffffffffffffffffffffffffffffffff1673ffffffffffffffffffffffffffffffffffffffff1681526020019081526020015f205414611cb8576040517f08c379a0000000000000000000000000000000000000000000000000000000008152600401611caf90613755565b60405180910390fd5b600154821015611cfd576040517f08c379a0000000000000000000000000000000000000000000000000000000008152600401611cf4906137bd565b60405180910390fd5b5f8787905011611d42576040517f08c379a0000000000000000000000000000000000000000000000000000000008152600401611d3990613825565b60405180910390fd5b5f73ffffffffffffffffffffffffffffffffffffffff168373ffffffffffffffffffffffffffffffffffffffff1603611db0576040517f08c379a0000000000000000000000000000000000000000000000000000000008152600401611da790612d9f565b60405180910390fd5b7f000000000000000000000000000000000000000000000000000000000000000073ffffffffffffffffffffffffffffffffffffffff166323b872dd3330856040518463ffffffff1660e01b8152600401611e0d93929190613022565b6020604051808303815f875af1158015611e29573d5f5f3e3d5ffd5b505050506040513d601f19601f82011682018060405250810190611e4d9190613081565b611e8c576040517f08c379a0000000000000000000000000000000000000000000000000000000008152600401611e839061388d565b60405180910390fd5b86863342604051602001611ea3949392919061393e565b6040516020818303038152906040528051906020012090506040518061010001604052803373ffffffffffffffffffffffffffffffffffffffff1681526020018473ffffffffffffffffffffffffffffffffffffffff16815260200188888080601f0160208091040260200160405190810160405280939291908181526020018383808284375f81840152601f19601f82011690508083019250505050505050815260200186868080601f0160208091040260200160405190810160405280939291908181526020018383808284375f81840152601f19601f8201169050808301925050505050505081526020018381526020014281526020015f81526020015f81525060035f8381526020019081526020015f205f820151815f015f6101000a81548173ffffffffffffffffffffffffffffffffffffffff021916908373ffffffffffffffffffffffffffffffffffffffff1602179055506020820151816001015f6101000a81548173ffffffffffffffffffffffffffffffffffffffff021916908373ffffffffffffffffffffffffffffffffffffffff16021790555060408201518160020190816120579190613978565b50606082015181600301908161206d9190613978565b506080820151816004015560a0820151816005015560c0820151816006015560e082015181600701559050508060045f3373ffffffffffffffffffffffffffffffffffffffff1673ffffffffffffffffffffffffffffffffffffffff1681526020019081526020015f20819055503373ffffffffffffffffffffffffffffffffffffffff16817f2328b78a1c593e3ef76b455f460aba2d505fc733902535e80a031d040c5cacad89898660405161212693929190613a47565b60405180910390a39695505050505050565b6121406122dd565b73ffffffffffffffffffffffffffffffffffffffff1661215e611050565b73ffffffffffffffffffffffffffffffffffffffff16146121bd576121816122dd565b6040517f118cdaa70000000000000000000000000000000000000000000000000000000081526004016121b49190612a62565b60405180910390fd5b565b5f5f5f9054906101000a900473ffffffffffffffffffffffffffffffffffffffff169050815f5f6101000a81548173ffffffffffffffffffffffffffffffffffffffff021916908373ffffffffffffffffffffffffffffffffffffffff1602179055508173ffffffffffffffffffffffffffffffffffffffff168173ffffffffffffffffffffffffffffffffffffffff167f8be0079c531659141344cd1fd0a4f28419497f9722a3daafe3b4186f6b6457e060405160405180910390a35050565b5f7f19457468657265756d205369676e6564204d6573736167653a0a3332000000005f5281601c52603c5f209050919050565b5f5f5f5f6122c186866122e4565b9250925092506122d18282612339565b82935050505092915050565b5f33905090565b5f5f5f6041845103612324575f5f5f602087015192506040870151915060608701515f1a90506123168882858561249b565b955095509550505050612332565b5f600285515f1b9250925092505b9250925092565b5f600381111561234c5761234b613a77565b5b82600381111561235f5761235e613a77565b5b0315612497576001600381111561237957612378613a77565b5b82600381111561238c5761238b613a77565b5b036123c3576040517ff645eedf00000000000000000000000000000000000000000000000000000000815260040160405180910390fd5b600260038111156123d7576123d6613a77565b5b8260038111156123ea576123e9613a77565b5b0361242e57805f1c6040517ffce698f7000000000000000000000000000000000000000000000000000000008152600401612425919061277d565b60405180910390fd5b60038081111561244157612440613a77565b5b82600381111561245457612453613a77565b5b0361249657806040517fd78bce0c00000000000000000000000000000000000000000000000000000000815260040161248d9190612c31565b60405180910390fd5b5b5050565b5f5f5f7f7fffffffffffffffffffffffffffffff5d576e7357a4501ddfe92f46681b20a0845f1c11156124d7575f600385925092509250612578565b5f6001888888886040515f81526020016040526040516124fa9493929190613abf565b6020604051602081039080840390855afa15801561251a573d5f5f3e3d5ffd5b5050506020604051035190505f73ffffffffffffffffffffffffffffffffffffffff168173ffffffffffffffffffffffffffffffffffffffff160361256b575f60015f5f1b93509350935050612578565b805f5f5f1b935093509350505b9450945094915050565b5f5ffd5b5f5ffd5b5f73ffffffffffffffffffffffffffffffffffffffff82169050919050565b5f6125b38261258a565b9050919050565b6125c3816125a9565b81146125cd575f5ffd5b50565b5f813590506125de816125ba565b92915050565b5f602082840312156125f9576125f8612582565b5b5f612606848285016125d0565b91505092915050565b5f819050919050565b6126218161260f565b811461262b575f5ffd5b50565b5f8135905061263c81612618565b92915050565b5f819050919050565b61265481612642565b811461265e575f5ffd5b50565b5f8135905061266f8161264b565b92915050565b5f5f6040838503121561268b5761268a612582565b5b5f6126988582860161262e565b92505060206126a985828601612661565b9150509250929050565b5f81519050919050565b5f82825260208201905092915050565b8281835e5f83830152505050565b5f601f19601f8301169050919050565b5f6126f5826126b3565b6126ff81856126bd565b935061270f8185602086016126cd565b612718816126db565b840191505092915050565b5f6020820190508181035f83015261273b81846126eb565b905092915050565b5f6020828403121561275857612757612582565b5b5f61276584828501612661565b91505092915050565b61277781612642565b82525050565b5f6020820190506127905f83018461276e565b92915050565b5f5f604083850312156127ac576127ab612582565b5b5f6127b9858286016125d0565b92505060206127ca8582860161262e565b9150509250929050565b5f602082840312156127e9576127e8612582565b5b5f6127f68482850161262e565b91505092915050565b5f819050919050565b5f61282261281d6128188461258a565b6127ff565b61258a565b9050919050565b5f61283382612808565b9050919050565b5f61284482612829565b9050919050565b6128548161283a565b82525050565b5f60208201905061286d5f83018461284b565b92915050565b5f81519050919050565b5f82825260208201905092915050565b5f819050602082019050919050565b5f82825260208201905092915050565b5f6128b6826126b3565b6128c0818561289c565b93506128d08185602086016126cd565b6128d9816126db565b840191505092915050565b5f6128ef83836128ac565b905092915050565b5f602082019050919050565b5f61290d82612873565b612917818561287d565b9350836020820285016129298561288d565b805f5b85811015612964578484038952815161294585826128e4565b9450612950836128f7565b925060208a0199505060018101905061292c565b50829750879550505050505092915050565b5f6020820190508181035f83015261298e8184612903565b905092915050565b5f8115159050919050565b6129aa81612996565b82525050565b5f6020820190506129c35f8301846129a1565b92915050565b6129d2816125a9565b82525050565b5f610100820190506129ec5f83018b6129c9565b6129f9602083018a6129c9565b8181036040830152612a0b81896126eb565b90508181036060830152612a1f81886126eb565b9050612a2e608083018761276e565b612a3b60a083018661276e565b612a4860c083018561276e565b612a5560e083018461276e565b9998505050505050505050565b5f602082019050612a755f8301846129c9565b92915050565b5f606082019050612a8e5f8301866129c9565b612a9b602083018561276e565b612aa8604083018461276e565b949350505050565b5f5ffd5b5f5ffd5b5f5ffd5b5f5f83601f840112612ad157612ad0612ab0565b5b8235905067ffffffffffffffff811115612aee57612aed612ab4565b5b602083019150836001820283011115612b0a57612b09612ab8565b5b9250929050565b5f5f5f5f60608587031215612b2957612b28612582565b5b5f612b368782880161262e565b9450506020612b478782880161262e565b935050604085013567ffffffffffffffff811115612b6857612b67612586565b5b612b7487828801612abc565b925092505092959194509250565b5f5f83601f840112612b9757612b96612ab0565b5b8235905067ffffffffffffffff811115612bb457612bb3612ab4565b5b602083019150836001820283011115612bd057612bcf612ab8565b5b9250929050565b5f5f60208385031215612bed57612bec612582565b5b5f83013567ffffffffffffffff811115612c0a57612c09612586565b5b612c1685828601612b82565b92509250509250929050565b612c2b8161260f565b82525050565b5f602082019050612c445f830184612c22565b92915050565b5f5f5f5f5f5f60808789031215612c6457612c63612582565b5b5f87013567ffffffffffffffff811115612c8157612c80612586565b5b612c8d89828a01612b82565b9650965050602087013567ffffffffffffffff811115612cb057612caf612586565b5b612cbc89828a01612b82565b94509450506040612ccf89828a016125d0565b9250506060612ce089828a01612661565b9150509295509295509295565b7f4e6f7420726567697374657265640000000000000000000000000000000000005f82015250565b5f612d21600e836126bd565b9150612d2c82612ced565b602082019050919050565b5f6020820190508181035f830152612d4e81612d15565b9050919050565b7f496e76616c6964207369676e696e67206b6579000000000000000000000000005f82015250565b5f612d896013836126bd565b9150612d9482612d55565b602082019050919050565b5f6020820190508181035f830152612db681612d7d565b9050919050565b7f4e487b71000000000000000000000000000000000000000000000000000000005f52602260045260245ffd5b5f6002820490506001821680612e0157607f821691505b602082108103612e1457612e13612dbd565b5b50919050565b7f416c726561647920646561637469766174696e670000000000000000000000005f82015250565b5f612e4e6014836126bd565b9150612e5982612e1a565b602082019050919050565b5f6020820190508181035f830152612e7b81612e42565b9050919050565b7f4964656e74697479206e6f7420666f756e6400000000000000000000000000005f82015250565b5f612eb66012836126bd565b9150612ec182612e82565b602082019050919050565b5f6020820190508181035f830152612ee381612eaa565b9050919050565b7f4964656e746974792064656163746976617465640000000000000000000000005f82015250565b5f612f1e6014836126bd565b9150612f2982612eea565b602082019050919050565b5f6020820190508181035f830152612f4b81612f12565b9050919050565b7f416d6f756e74206d757374206265203e203000000000000000000000000000005f82015250565b5f612f866012836126bd565b9150612f9182612f52565b602082019050919050565b5f6020820190508181035f830152612fb381612f7a565b9050919050565b7f416c726561647920766f756368656400000000000000000000000000000000005f82015250565b5f612fee600f836126bd565b9150612ff982612fba565b602082019050919050565b5f6020820190508181035f83015261301b81612fe2565b9050919050565b5f6060820190506130355f8301866129c9565b61304260208301856129c9565b61304f604083018461276e565b949350505050565b61306081612996565b811461306a575f5ffd5b50565b5f8151905061307b81613057565b92915050565b5f6020828403121561309657613095612582565b5b5f6130a38482850161306d565b91505092915050565b7f566f756368207472616e73666572206661696c656400000000000000000000005f82015250565b5f6130e06015836126bd565b91506130eb826130ac565b602082019050919050565b5f6020820190508181035f83015261310d816130d4565b9050919050565b7f4e487b71000000000000000000000000000000000000000000000000000000005f52601160045260245ffd5b5f61314b82612642565b915061315683612642565b925082820190508082111561316e5761316d613114565b5b92915050565b5f82905092915050565b7f4e487b71000000000000000000000000000000000000000000000000000000005f52604160045260245ffd5b5f819050815f5260205f209050919050565b5f6020601f8301049050919050565b5f82821b905092915050565b5f600883026132077fffffffffffffffffffffffffffffffffffffffffffffffffffffffffffffffff826131cc565b61321186836131cc565b95508019841693508086168417925050509392505050565b5f61324361323e61323984612642565b6127ff565b612642565b9050919050565b5f819050919050565b61325c83613229565b6132706132688261324a565b8484546131d8565b825550505050565b5f5f905090565b613287613278565b613292818484613253565b505050565b5f5b828110156132b8576132ad5f82840161327f565b600181019050613299565b505050565b601f82111561330b578282111561330a576132d7816131ab565b6132e0836131bd565b6132e9856131bd565b60208610156132f6575f90505b80830161330582840382613297565b505050505b5b505050565b5f82821c905092915050565b5f61332b5f1984600802613310565b1980831691505092915050565b5f613343838361331c565b9150826002028217905092915050565b61335d8383613174565b67ffffffffffffffff8111156133765761337561317e565b5b6133808254612dea565b61338b8282856132bd565b5f601f8311600181146133b8575f84156133a6578287013590505b6133b08582613338565b865550613417565b601f1984166133c6866131ab565b5f5b828110156133ed578489013582556001820191506020850194506020810190506133c8565b8683101561340a5784890135613406601f89168261331c565b8355505b6001600288020188555050505b50505050505050565b828183375f83830152505050565b5f61343983856126bd565b9350613446838584613420565b61344f836126db565b840190509392505050565b5f6020820190508181035f83015261347381848661342e565b90509392505050565b7f4e6f20766f75636820666f756e640000000000000000000000000000000000005f82015250565b5f6134b0600e836126bd565b91506134bb8261347c565b602082019050919050565b5f6020820190508181035f8301526134dd816134a4565b9050919050565b5f6134ee82612642565b91506134f983612642565b925082820390508181111561351157613510613114565b5b92915050565b7f4e487b71000000000000000000000000000000000000000000000000000000005f52603260045260245ffd5b5f6040820190506135575f8301856129c9565b613564602083018461276e565b9392505050565b7f5769746864726177206661696c656400000000000000000000000000000000005f82015250565b5f61359f600f836126bd565b91506135aa8261356b565b602082019050919050565b5f6020820190508181035f8301526135cc81613593565b9050919050565b7f4e6f7420646561637469766174656400000000000000000000000000000000005f82015250565b5f613607600f836126bd565b9150613612826135d3565b602082019050919050565b5f6020820190508181035f830152613634816135fb565b9050919050565b7f436f6f6c646f776e206e6f7420636f6d706c65746500000000000000000000005f82015250565b5f61366f6015836126bd565b915061367a8261363b565b602082019050919050565b5f6020820190508181035f83015261369c81613663565b9050919050565b7f4e6f7420646561637469766174696e67000000000000000000000000000000005f82015250565b5f6136d76010836126bd565b91506136e2826136a3565b602082019050919050565b5f6020820190508181035f830152613704816136cb565b9050919050565b7f416c7265616479207265676973746572656400000000000000000000000000005f82015250565b5f61373f6012836126bd565b915061374a8261370b565b602082019050919050565b5f6020820190508181035f83015261376c81613733565b9050919050565b7f5374616b6520746f6f206c6f77000000000000000000000000000000000000005f82015250565b5f6137a7600d836126bd565b91506137b282613773565b602082019050919050565b5f6020820190508181035f8301526137d48161379b565b9050919050565b7f4e616d65207265717569726564000000000000000000000000000000000000005f82015250565b5f61380f600d836126bd565b915061381a826137db565b602082019050919050565b5f6020820190508181035f83015261383c81613803565b9050919050565b7f5374616b65207472616e73666572206661696c656400000000000000000000005f82015250565b5f6138776015836126bd565b915061388282613843565b602082019050919050565b5f6020820190508181035f8301526138a48161386b565b9050919050565b5f81905092915050565b5f6138c083856138ab565b93506138cd838584613420565b82840190509392505050565b5f8160601b9050919050565b5f6138ef826138d9565b9050919050565b5f613900826138e5565b9050919050565b613918613913826125a9565b6138f6565b82525050565b5f819050919050565b61393861393382612642565b61391e565b82525050565b5f61394a8286886138b5565b91506139568285613907565b6014820191506139668284613927565b60208201915081905095945050505050565b613981826126b3565b67ffffffffffffffff81111561399a5761399961317e565b5b6139a48254612dea565b6139af8282856132bd565b5f60209050601f8311600181146139e0575f84156139ce578287015190505b6139d88582613338565b865550613a3f565b601f1984166139ee866131ab565b5f5b82811015613a15578489015182556001820191506020850194506020810190506139f0565b86831015613a325784890151613a2e601f89168261331c565b8355505b6001600288020188555050505b505050505050565b5f6040820190508181035f830152613a6081858761342e565b9050613a6f602083018461276e565b949350505050565b7f4e487b71000000000000000000000000000000000000000000000000000000005f52602160045260245ffd5b5f60ff82169050919050565b613ab981613aa4565b82525050565b5f608082019050613ad25f830187612c22565b613adf6020830186613ab0565b613aec6040830185612c22565b613af96060830184612c22565b9594505050505056fea26469706673582212209d6c0eb67c41c47a5c5efd253064c5370dcb155e417c7b55222eb69ff7a4da6a64736f6c63430008210033","linkReferences":{}},"methodIdentifiers":{"deactivate()":"51b42b00","deactivationCooldown()":"11f38a98","getIdentity(bytes32)":"a7867212","getLinkedPlatforms(bytes32)":"434bff62","getVouchCount(bytes32)":"3ddc905c","identities(bytes32)":"81638e9b","isActive(bytes32)":"5c36901c","linkPlatform(string)":"9bc23941","linkedPlatforms(bytes32,uint256)":"0af7c965","minStake()":"375b3c0a","owner()":"8da5cb5b","ownerToIdentity(address)":"c1a92f03","reactivate()":"d18611d6","register(string,string,address,uint256)":"fbb4f08a","renounceOwnership()":"715018a6","setDeactivationCooldown(uint256)":"0e4a8c3c","setMinStake(uint256)":"8c80fd90","transferOwnership(address)":"f2fde38b","updateSigningKey(address)":"04478293","usdc()":"3e413bee","verifySignature(bytes32,bytes32,bytes)":"903a6ac0","vouch(bytes32,uint256)":"680603af","vouchIndex(address,bytes32)":"1ddcf64e","vouches(bytes32,uint256)":"8daa3980","withdrawStake()":"bed9d861","withdrawVouch(bytes32)":"b1b73a0c"},"id":32}